{
  "_format": "hh-sol-artifact-1",
  "contractName": "NftSrb",
  "sourceName": "contracts/NftSrb.sol",
  "abi": [
    {
      "inputs": [],
      "stateMutability": "nonpayable",
      "type": "constructor"
    },
    {
      "anonymous": false,
      "inputs": [
        {
          "indexed": true,
          "internalType": "address",
          "name": "owner",
          "type": "address"
        },
        {
          "indexed": true,
          "internalType": "address",
          "name": "approved",
          "type": "address"
        },
        {
          "indexed": true,
          "internalType": "uint256",
          "name": "tokenId",
          "type": "uint256"
        }
      ],
      "name": "Approval",
      "type": "event"
    },
    {
      "anonymous": false,
      "inputs": [
        {
          "indexed": true,
          "internalType": "address",
          "name": "owner",
          "type": "address"
        },
        {
          "indexed": true,
          "internalType": "address",
          "name": "operator",
          "type": "address"
        },
        {
          "indexed": false,
          "internalType": "bool",
          "name": "approved",
          "type": "bool"
        }
      ],
      "name": "ApprovalForAll",
      "type": "event"
    },
    {
      "anonymous": false,
      "inputs": [
        {
          "indexed": false,
          "internalType": "uint256",
          "name": "_tokenId",
          "type": "uint256"
        },
        {
          "indexed": false,
          "internalType": "string",
          "name": "tokenURI",
          "type": "string"
        },
        {
          "indexed": false,
          "internalType": "address",
          "name": "minter",
          "type": "address"
        }
      ],
      "name": "Mint",
      "type": "event"
    },
    {
      "anonymous": false,
      "inputs": [
        {
          "indexed": false,
          "internalType": "uint256",
          "name": "tokenId",
          "type": "uint256"
        },
        {
          "indexed": false,
          "internalType": "bool",
          "name": "isForSale",
          "type": "bool"
        },
        {
          "indexed": false,
          "internalType": "uint256",
          "name": "price",
          "type": "uint256"
        },
        {
          "indexed": false,
          "internalType": "address",
          "name": "owner",
          "type": "address"
        }
      ],
      "name": "NftChanged",
      "type": "event"
    },
    {
      "anonymous": false,
      "inputs": [
        {
          "indexed": true,
          "internalType": "address",
          "name": "from",
          "type": "address"
        },
        {
          "indexed": true,
          "internalType": "address",
          "name": "to",
          "type": "address"
        },
        {
          "indexed": true,
          "internalType": "uint256",
          "name": "tokenId",
          "type": "uint256"
        }
      ],
      "name": "Transfer",
      "type": "event"
    },
    {
      "anonymous": false,
      "inputs": [
        {
          "indexed": false,
          "internalType": "address",
          "name": "from",
          "type": "address"
        },
        {
          "indexed": false,
          "internalType": "address",
          "name": "to",
          "type": "address"
        },
        {
          "indexed": false,
          "internalType": "uint256",
          "name": "tokenId",
          "type": "uint256"
        },
        {
          "indexed": false,
          "internalType": "string",
          "name": "tokenURI",
          "type": "string"
        }
      ],
      "name": "TransferNftSrb",
      "type": "event"
    },
    {
      "inputs": [
        {
          "internalType": "address",
          "name": "to",
          "type": "address"
        },
        {
          "internalType": "uint256",
          "name": "tokenId",
          "type": "uint256"
        }
      ],
      "name": "approve",
      "outputs": [],
      "stateMutability": "nonpayable",
      "type": "function"
    },
    {
      "inputs": [
        {
          "internalType": "address",
          "name": "owner",
          "type": "address"
        }
      ],
      "name": "balanceOf",
      "outputs": [
        {
          "internalType": "uint256",
          "name": "",
          "type": "uint256"
        }
      ],
      "stateMutability": "view",
      "type": "function"
    },
    {
      "inputs": [
        {
          "internalType": "uint256",
          "name": "tokenId",
          "type": "uint256"
        }
      ],
      "name": "buy",
      "outputs": [],
      "stateMutability": "payable",
      "type": "function"
    },
    {
      "inputs": [
        {
          "internalType": "uint256",
          "name": "tokenId",
          "type": "uint256"
        }
      ],
      "name": "getApproved",
      "outputs": [
        {
          "internalType": "address",
          "name": "",
          "type": "address"
        }
      ],
      "stateMutability": "view",
      "type": "function"
    },
    {
      "inputs": [
        {
          "internalType": "uint256",
          "name": "tokenId",
          "type": "uint256"
        }
      ],
      "name": "getPrice",
      "outputs": [
        {
          "internalType": "uint256",
          "name": "",
          "type": "uint256"
        }
      ],
      "stateMutability": "view",
      "type": "function"
    },
    {
      "inputs": [
        {
          "internalType": "address",
          "name": "owner",
          "type": "address"
        },
        {
          "internalType": "address",
          "name": "operator",
          "type": "address"
        }
      ],
      "name": "isApprovedForAll",
      "outputs": [
        {
          "internalType": "bool",
          "name": "",
          "type": "bool"
        }
      ],
      "stateMutability": "view",
      "type": "function"
    },
    {
      "inputs": [
        {
          "internalType": "uint256",
          "name": "tokenId",
          "type": "uint256"
        }
      ],
      "name": "isForSale",
      "outputs": [
        {
          "internalType": "bool",
          "name": "",
          "type": "bool"
        }
      ],
      "stateMutability": "view",
      "type": "function"
    },
    {
      "inputs": [
        {
          "internalType": "string",
          "name": "tokenURI",
          "type": "string"
        },
        {
          "internalType": "uint256",
          "name": "price",
          "type": "uint256"
        }
      ],
      "name": "mint",
      "outputs": [],
      "stateMutability": "nonpayable",
      "type": "function"
    },
    {
      "inputs": [],
      "name": "name",
      "outputs": [
        {
          "internalType": "string",
          "name": "",
          "type": "string"
        }
      ],
      "stateMutability": "view",
      "type": "function"
    },
    {
      "inputs": [
        {
          "internalType": "uint256",
          "name": "tokenId",
          "type": "uint256"
        }
      ],
      "name": "ownerOf",
      "outputs": [
        {
          "internalType": "address",
          "name": "",
          "type": "address"
        }
      ],
      "stateMutability": "view",
      "type": "function"
    },
    {
      "inputs": [
        {
          "internalType": "address",
          "name": "from",
          "type": "address"
        },
        {
          "internalType": "address",
          "name": "to",
          "type": "address"
        },
        {
          "internalType": "uint256",
          "name": "tokenId",
          "type": "uint256"
        }
      ],
      "name": "safeTransferFrom",
      "outputs": [],
      "stateMutability": "nonpayable",
      "type": "function"
    },
    {
      "inputs": [
        {
          "internalType": "address",
          "name": "from",
          "type": "address"
        },
        {
          "internalType": "address",
          "name": "to",
          "type": "address"
        },
        {
          "internalType": "uint256",
          "name": "tokenId",
          "type": "uint256"
        },
        {
          "internalType": "bytes",
          "name": "_data",
          "type": "bytes"
        }
      ],
      "name": "safeTransferFrom",
      "outputs": [],
      "stateMutability": "nonpayable",
      "type": "function"
    },
    {
      "inputs": [
        {
          "internalType": "address",
          "name": "operator",
          "type": "address"
        },
        {
          "internalType": "bool",
          "name": "approved",
          "type": "bool"
        }
      ],
      "name": "setApprovalForAll",
      "outputs": [],
      "stateMutability": "nonpayable",
      "type": "function"
    },
    {
      "inputs": [
        {
          "internalType": "bytes4",
          "name": "interfaceId",
          "type": "bytes4"
        }
      ],
      "name": "supportsInterface",
      "outputs": [
        {
          "internalType": "bool",
          "name": "",
          "type": "bool"
        }
      ],
      "stateMutability": "view",
      "type": "function"
    },
    {
      "inputs": [],
      "name": "symbol",
      "outputs": [
        {
          "internalType": "string",
          "name": "",
          "type": "string"
        }
      ],
      "stateMutability": "view",
      "type": "function"
    },
    {
      "inputs": [
        {
          "internalType": "uint256",
          "name": "tokenId",
          "type": "uint256"
        }
      ],
      "name": "tokenURI",
      "outputs": [
        {
          "internalType": "string",
          "name": "",
          "type": "string"
        }
      ],
      "stateMutability": "view",
      "type": "function"
    },
    {
      "inputs": [
        {
          "internalType": "address",
          "name": "from",
          "type": "address"
        },
        {
          "internalType": "address",
          "name": "to",
          "type": "address"
        },
        {
          "internalType": "uint256",
          "name": "tokenId",
          "type": "uint256"
        }
      ],
      "name": "transferFrom",
      "outputs": [],
      "stateMutability": "nonpayable",
      "type": "function"
    },
    {
      "inputs": [
        {
          "internalType": "uint256",
          "name": "tokenId",
          "type": "uint256"
        },
        {
          "internalType": "bool",
          "name": "_isForSale",
          "type": "bool"
        },
        {
          "internalType": "uint256",
          "name": "price",
          "type": "uint256"
        }
      ],
      "name": "update",
      "outputs": [],
      "stateMutability": "nonpayable",
      "type": "function"
    }
  ],
  "bytecode": "0x608060405260006007553480156200001657600080fd5b506040518060400160405280600981526020017f4e6674537262696a6100000000000000000000000000000000000000000000008152506040518060400160405280600681526020017f4e4654535242000000000000000000000000000000000000000000000000000081525081600090805190602001906200009b929190620000fe565b508060019080519060200190620000b4929190620000fe565b50505033600860006101000a81548173ffffffffffffffffffffffffffffffffffffffff021916908373ffffffffffffffffffffffffffffffffffffffff16021790555062000213565b8280546200010c90620001ae565b90600052602060002090601f0160209004810192826200013057600085556200017c565b82601f106200014b57805160ff19168380011785556200017c565b828001600101855582156200017c579182015b828111156200017b5782518255916020019190600101906200015e565b5b5090506200018b91906200018f565b5090565b5b80821115620001aa57600081600090555060010162000190565b5090565b60006002820490506001821680620001c757607f821691505b60208210811415620001de57620001dd620001e4565b5b50919050565b7f4e487b7100000000000000000000000000000000000000000000000000000000600052602260045260246000fd5b61360780620002236000396000f3fe6080604052600436106101095760003560e01c806370a0823111610095578063b88d4fde11610064578063b88d4fde1461038b578063c87b56dd146103b4578063d96a094a146103f1578063e75722301461040d578063e985e9c51461044a57610109565b806370a08231146102bd5780638546d002146102fa57806395d89b4114610337578063a22cb4651461036257610109565b8063095ea7b3116100dc578063095ea7b3146101dc57806323b872dd1461020557806342842e0e1461022e5780636352211e146102575780636907c9411461029457610109565b806301ffc9a71461010e578063056b01ce1461014b57806306fdde0314610174578063081812fc1461019f575b600080fd5b34801561011a57600080fd5b506101356004803603810190610130919061225a565b610487565b60405161014291906127fe565b60405180910390f35b34801561015757600080fd5b50610172600480360381019061016d91906122ac565b610569565b005b34801561018057600080fd5b5061018961061e565b6040516101969190612819565b60405180910390f35b3480156101ab57600080fd5b506101c660048036038101906101c19190612300565b6106b0565b6040516101d3919061274b565b60405180910390f35b3480156101e857600080fd5b5061020360048036038101906101fe919061221e565b610735565b005b34801561021157600080fd5b5061022c60048036038101906102279190612118565b61084d565b005b34801561023a57600080fd5b5061025560048036038101906102509190612118565b6108ad565b005b34801561026357600080fd5b5061027e60048036038101906102799190612300565b6108cd565b60405161028b919061274b565b60405180910390f35b3480156102a057600080fd5b506102bb60048036038101906102b69190612329565b61097f565b005b3480156102c957600080fd5b506102e460048036038101906102df91906120b3565b610a87565b6040516102f19190612adb565b60405180910390f35b34801561030657600080fd5b50610321600480360381019061031c9190612300565b610b3f565b60405161032e91906127fe565b60405180910390f35b34801561034357600080fd5b5061034c610b69565b6040516103599190612819565b60405180910390f35b34801561036e57600080fd5b50610389600480360381019061038491906121e2565b610bfb565b005b34801561039757600080fd5b506103b260048036038101906103ad9190612167565b610c11565b005b3480156103c057600080fd5b506103db60048036038101906103d69190612300565b610c73565b6040516103e89190612819565b60405180910390f35b61040b60048036038101906104069190612300565b610dc5565b005b34801561041957600080fd5b50610434600480360381019061042f9190612300565b6110b7565b6040516104419190612adb565b60405180910390f35b34801561045657600080fd5b50610471600480360381019061046c91906120dc565b6110d4565b60405161047e91906127fe565b60405180910390f35b60007f80ac58cd000000000000000000000000000000000000000000000000000000007bffffffffffffffffffffffffffffffffffffffffffffffffffffffff1916827bffffffffffffffffffffffffffffffffffffffffffffffffffffffff1916148061055257507f5b5e139f000000000000000000000000000000000000000000000000000000007bffffffffffffffffffffffffffffffffffffffffffffffffffffffff1916827bffffffffffffffffffffffffffffffffffffffffffffffffffffffff1916145b80610562575061056182611168565b5b9050919050565b610575336007546111d2565b610581600754836111f0565b80600960006007548152602001908152602001600020819055506001600a6000600754815260200190815260200160002060006101000a81548160ff0219169083151502179055507f983d37d8751fcfa80e95e5fe2c0f46fb7b541b280961dc7ac00aa2670e2edd87600760008154809291906105fd90612e71565b91905055833360405161061293929190612b3b565b60405180910390a15050565b60606000805461062d90612e0e565b80601f016020809104026020016040519081016040528092919081815260200182805461065990612e0e565b80156106a65780601f1061067b576101008083540402835291602001916106a6565b820191906000526020600020905b81548152906001019060200180831161068957829003601f168201915b5050505050905090565b60006106bb82611264565b6106fa576040517f08c379a00000000000000000000000000000000000000000000000000000000081526004016106f1906129db565b60405180910390fd5b6004600083815260200190815260200160002060009054906101000a900473ffffffffffffffffffffffffffffffffffffffff169050919050565b6000610740826108cd565b90508073ffffffffffffffffffffffffffffffffffffffff168373ffffffffffffffffffffffffffffffffffffffff1614156107b1576040517f08c379a00000000000000000000000000000000000000000000000000000000081526004016107a890612a3b565b60405180910390fd5b8073ffffffffffffffffffffffffffffffffffffffff166107d06112d0565b73ffffffffffffffffffffffffffffffffffffffff1614806107ff57506107fe816107f96112d0565b6110d4565b5b61083e576040517f08c379a00000000000000000000000000000000000000000000000000000000081526004016108359061291b565b60405180910390fd5b61084883836112d8565b505050565b61085e6108586112d0565b82611391565b61089d576040517f08c379a000000000000000000000000000000000000000000000000000000000815260040161089490612a7b565b60405180910390fd5b6108a883838361146f565b505050565b6108c883838360405180602001604052806000815250610c11565b505050565b6000806002600084815260200190815260200160002060009054906101000a900473ffffffffffffffffffffffffffffffffffffffff169050600073ffffffffffffffffffffffffffffffffffffffff168173ffffffffffffffffffffffffffffffffffffffff161415610976576040517f08c379a000000000000000000000000000000000000000000000000000000000815260040161096d9061295b565b60405180910390fd5b80915050919050565b600061098a846108cd565b90503373ffffffffffffffffffffffffffffffffffffffff168173ffffffffffffffffffffffffffffffffffffffff16146109fa576040517f08c379a00000000000000000000000000000000000000000000000000000000081526004016109f19061289b565b60405180910390fd5b82600a600086815260200190815260200160002060006101000a81548160ff0219169083151502179055508215610a44578160096000868152602001908152602001600020819055505b7f86e7103f840c4ef14c46772a9b771e635c5e2dc5e33706b806594d923e03b60284848484604051610a799493929190612af6565b60405180910390a150505050565b60008073ffffffffffffffffffffffffffffffffffffffff168273ffffffffffffffffffffffffffffffffffffffff161415610af8576040517f08c379a0000000000000000000000000000000000000000000000000000000008152600401610aef9061293b565b60405180910390fd5b600360008373ffffffffffffffffffffffffffffffffffffffff1673ffffffffffffffffffffffffffffffffffffffff168152602001908152602001600020549050919050565b6000600a600083815260200190815260200160002060009054906101000a900460ff169050919050565b606060018054610b7890612e0e565b80601f0160208091040260200160405190810160405280929190818152602001828054610ba490612e0e565b8015610bf15780601f10610bc657610100808354040283529160200191610bf1565b820191906000526020600020905b815481529060010190602001808311610bd457829003601f168201915b5050505050905090565b610c0d610c066112d0565b83836116cb565b5050565b610c22610c1c6112d0565b83611391565b610c61576040517f08c379a0000000000000000000000000000000000000000000000000000000008152600401610c5890612a7b565b60405180910390fd5b610c6d84848484611838565b50505050565b6060610c7e82611264565b610cbd576040517f08c379a0000000000000000000000000000000000000000000000000000000008152600401610cb4906129bb565b60405180910390fd5b6000600660008481526020019081526020016000208054610cdd90612e0e565b80601f0160208091040260200160405190810160405280929190818152602001828054610d0990612e0e565b8015610d565780601f10610d2b57610100808354040283529160200191610d56565b820191906000526020600020905b815481529060010190602001808311610d3957829003601f168201915b505050505090506000610d67611894565b9050600081511415610d7d578192505050610dc0565b600082511115610db2578082604051602001610d9a929190612727565b60405160208183030381529060405292505050610dc0565b610dbb846118ab565b925050505b919050565b60011515600a600083815260200190815260200160002060009054906101000a900460ff16151514610e2c576040517f08c379a0000000000000000000000000000000000000000000000000000000008152600401610e2390612a9b565b60405180910390fd5b6009600082815260200190815260200160002054341015610e82576040517f08c379a0000000000000000000000000000000000000000000000000000000008152600401610e7990612abb565b60405180910390fd5b343373ffffffffffffffffffffffffffffffffffffffff16311015610edc576040517f08c379a0000000000000000000000000000000000000000000000000000000008152600401610ed390612a5b565b60405180910390fd5b6000610ee7826108cd565b90503373ffffffffffffffffffffffffffffffffffffffff168173ffffffffffffffffffffffffffffffffffffffff161415610f58576040517f08c379a0000000000000000000000000000000000000000000000000000000008152600401610f4f9061283b565b60405180910390fd5b610f6381338461146f565b7fe402ec6b5e039c039b25d21bb4b0831dd08fcb1421e062e8ce1203295d8f34ef813384610f9086610c73565b604051610fa094939291906127b2565b60405180910390a16000600a600084815260200190815260200160002060006101000a81548160ff02191690831515021790555060006064600534610fe59190612cca565b610fef9190612c99565b905060008134610fff9190612d24565b9050600860009054906101000a900473ffffffffffffffffffffffffffffffffffffffff1673ffffffffffffffffffffffffffffffffffffffff166108fc839081150290604051600060405180830381858888f19350505050158015611069573d6000803e3d6000fd5b508273ffffffffffffffffffffffffffffffffffffffff166108fc829081150290604051600060405180830381858888f193505050501580156110b0573d6000803e3d6000fd5b5050505050565b600060096000838152602001908152602001600020549050919050565b6000600560008473ffffffffffffffffffffffffffffffffffffffff1673ffffffffffffffffffffffffffffffffffffffff16815260200190815260200160002060008373ffffffffffffffffffffffffffffffffffffffff1673ffffffffffffffffffffffffffffffffffffffff16815260200190815260200160002060009054906101000a900460ff16905092915050565b60007f01ffc9a7000000000000000000000000000000000000000000000000000000007bffffffffffffffffffffffffffffffffffffffffffffffffffffffff1916827bffffffffffffffffffffffffffffffffffffffffffffffffffffffff1916149050919050565b6111ec828260405180602001604052806000815250611952565b5050565b6111f982611264565b611238576040517f08c379a000000000000000000000000000000000000000000000000000000000815260040161122f9061297b565b60405180910390fd5b8060066000848152602001908152602001600020908051906020019061125f929190611ed7565b505050565b60008073ffffffffffffffffffffffffffffffffffffffff166002600084815260200190815260200160002060009054906101000a900473ffffffffffffffffffffffffffffffffffffffff1673ffffffffffffffffffffffffffffffffffffffff1614159050919050565b600033905090565b816004600083815260200190815260200160002060006101000a81548173ffffffffffffffffffffffffffffffffffffffff021916908373ffffffffffffffffffffffffffffffffffffffff160217905550808273ffffffffffffffffffffffffffffffffffffffff1661134b836108cd565b73ffffffffffffffffffffffffffffffffffffffff167f8c5be1e5ebec7d5bd14f71427d1e84f3dd0314c0f7b2291e5b200ac8c7c3b92560405160405180910390a45050565b600061139c82611264565b6113db576040517f08c379a00000000000000000000000000000000000000000000000000000000081526004016113d2906128fb565b60405180910390fd5b60006113e6836108cd565b90508073ffffffffffffffffffffffffffffffffffffffff168473ffffffffffffffffffffffffffffffffffffffff16148061145557508373ffffffffffffffffffffffffffffffffffffffff1661143d846106b0565b73ffffffffffffffffffffffffffffffffffffffff16145b80611466575061146581856110d4565b5b91505092915050565b8273ffffffffffffffffffffffffffffffffffffffff1661148f826108cd565b73ffffffffffffffffffffffffffffffffffffffff16146114e5576040517f08c379a00000000000000000000000000000000000000000000000000000000081526004016114dc906129fb565b60405180910390fd5b600073ffffffffffffffffffffffffffffffffffffffff168273ffffffffffffffffffffffffffffffffffffffff161415611555576040517f08c379a000000000000000000000000000000000000000000000000000000000815260040161154c906128bb565b60405180910390fd5b6115608383836119ad565b61156b6000826112d8565b6001600360008573ffffffffffffffffffffffffffffffffffffffff1673ffffffffffffffffffffffffffffffffffffffff16815260200190815260200160002060008282546115bb9190612d24565b925050819055506001600360008473ffffffffffffffffffffffffffffffffffffffff1673ffffffffffffffffffffffffffffffffffffffff16815260200190815260200160002060008282546116129190612c43565b92505081905550816002600083815260200190815260200160002060006101000a81548173ffffffffffffffffffffffffffffffffffffffff021916908373ffffffffffffffffffffffffffffffffffffffff160217905550808273ffffffffffffffffffffffffffffffffffffffff168473ffffffffffffffffffffffffffffffffffffffff167fddf252ad1be2c89b69c2b068fc378daa952ba7f163c4a11628f55a4df523b3ef60405160405180910390a4505050565b8173ffffffffffffffffffffffffffffffffffffffff168373ffffffffffffffffffffffffffffffffffffffff16141561173a576040517f08c379a0000000000000000000000000000000000000000000000000000000008152600401611731906128db565b60405180910390fd5b80600560008573ffffffffffffffffffffffffffffffffffffffff1673ffffffffffffffffffffffffffffffffffffffff16815260200190815260200160002060008473ffffffffffffffffffffffffffffffffffffffff1673ffffffffffffffffffffffffffffffffffffffff16815260200190815260200160002060006101000a81548160ff0219169083151502179055508173ffffffffffffffffffffffffffffffffffffffff168373ffffffffffffffffffffffffffffffffffffffff167f17307eab39ab6107e8899845ad3d59bd9653f200f220920489ca2b5937696c318360405161182b91906127fe565b60405180910390a3505050565b61184384848461146f565b61184f848484846119b2565b61188e576040517f08c379a00000000000000000000000000000000000000000000000000000000081526004016118859061285b565b60405180910390fd5b50505050565b606060405180602001604052806000815250905090565b60606118b682611264565b6118f5576040517f08c379a00000000000000000000000000000000000000000000000000000000081526004016118ec90612a1b565b60405180910390fd5b60006118ff611894565b9050600081511161191f576040518060200160405280600081525061194a565b8061192984611b49565b60405160200161193a929190612727565b6040516020818303038152906040525b915050919050565b61195c8383611cf6565b61196960008484846119b2565b6119a8576040517f08c379a000000000000000000000000000000000000000000000000000000000815260040161199f9061285b565b60405180910390fd5b505050565b505050565b60006119d38473ffffffffffffffffffffffffffffffffffffffff16611ec4565b15611b3c578373ffffffffffffffffffffffffffffffffffffffff1663150b7a026119fc6112d0565b8786866040518563ffffffff1660e01b8152600401611a1e9493929190612766565b602060405180830381600087803b158015611a3857600080fd5b505af1925050508015611a6957506040513d601f19601f82011682018060405250810190611a669190612283565b60015b611aec573d8060008114611a99576040519150601f19603f3d011682016040523d82523d6000602084013e611a9e565b606091505b50600081511415611ae4576040517f08c379a0000000000000000000000000000000000000000000000000000000008152600401611adb9061285b565b60405180910390fd5b805181602001fd5b63150b7a0260e01b7bffffffffffffffffffffffffffffffffffffffffffffffffffffffff1916817bffffffffffffffffffffffffffffffffffffffffffffffffffffffff191614915050611b41565b600190505b949350505050565b60606000821415611b91576040518060400160405280600181526020017f30000000000000000000000000000000000000000000000000000000000000008152509050611cf1565b600082905060005b60008214611bc3578080611bac90612e71565b915050600a82611bbc9190612c99565b9150611b99565b60008167ffffffffffffffff811115611c05577f4e487b7100000000000000000000000000000000000000000000000000000000600052604160045260246000fd5b6040519080825280601f01601f191660200182016040528015611c375781602001600182028036833780820191505090505b5090505b60008514611cea57600182611c509190612d24565b9150600a85611c5f9190612eba565b6030611c6b9190612c43565b60f81b818381518110611ca7577f4e487b7100000000000000000000000000000000000000000000000000000000600052603260045260246000fd5b60200101907effffffffffffffffffffffffffffffffffffffffffffffffffffffffffffff1916908160001a905350600a85611ce39190612c99565b9450611c3b565b8093505050505b919050565b600073ffffffffffffffffffffffffffffffffffffffff168273ffffffffffffffffffffffffffffffffffffffff161415611d66576040517f08c379a0000000000000000000000000000000000000000000000000000000008152600401611d5d9061299b565b60405180910390fd5b611d6f81611264565b15611daf576040517f08c379a0000000000000000000000000000000000000000000000000000000008152600401611da69061287b565b60405180910390fd5b611dbb600083836119ad565b6001600360008473ffffffffffffffffffffffffffffffffffffffff1673ffffffffffffffffffffffffffffffffffffffff1681526020019081526020016000206000828254611e0b9190612c43565b92505081905550816002600083815260200190815260200160002060006101000a81548173ffffffffffffffffffffffffffffffffffffffff021916908373ffffffffffffffffffffffffffffffffffffffff160217905550808273ffffffffffffffffffffffffffffffffffffffff16600073ffffffffffffffffffffffffffffffffffffffff167fddf252ad1be2c89b69c2b068fc378daa952ba7f163c4a11628f55a4df523b3ef60405160405180910390a45050565b600080823b905060008111915050919050565b828054611ee390612e0e565b90600052602060002090601f016020900481019282611f055760008555611f4c565b82601f10611f1e57805160ff1916838001178555611f4c565b82800160010185558215611f4c579182015b82811115611f4b578251825591602001919060010190611f30565b5b509050611f599190611f5d565b5090565b5b80821115611f76576000816000905550600101611f5e565b5090565b6000611f8d611f8884612b9e565b612b79565b905082815260208101848484011115611fa557600080fd5b611fb0848285612dcc565b509392505050565b6000611fcb611fc684612bcf565b612b79565b905082815260208101848484011115611fe357600080fd5b611fee848285612dcc565b509392505050565b60008135905061200581613575565b92915050565b60008135905061201a8161358c565b92915050565b60008135905061202f816135a3565b92915050565b600081519050612044816135a3565b92915050565b600082601f83011261205b57600080fd5b813561206b848260208601611f7a565b91505092915050565b600082601f83011261208557600080fd5b8135612095848260208601611fb8565b91505092915050565b6000813590506120ad816135ba565b92915050565b6000602082840312156120c557600080fd5b60006120d384828501611ff6565b91505092915050565b600080604083850312156120ef57600080fd5b60006120fd85828601611ff6565b925050602061210e85828601611ff6565b9150509250929050565b60008060006060848603121561212d57600080fd5b600061213b86828701611ff6565b935050602061214c86828701611ff6565b925050604061215d8682870161209e565b9150509250925092565b6000806000806080858703121561217d57600080fd5b600061218b87828801611ff6565b945050602061219c87828801611ff6565b93505060406121ad8782880161209e565b925050606085013567ffffffffffffffff8111156121ca57600080fd5b6121d68782880161204a565b91505092959194509250565b600080604083850312156121f557600080fd5b600061220385828601611ff6565b92505060206122148582860161200b565b9150509250929050565b6000806040838503121561223157600080fd5b600061223f85828601611ff6565b92505060206122508582860161209e565b9150509250929050565b60006020828403121561226c57600080fd5b600061227a84828501612020565b91505092915050565b60006020828403121561229557600080fd5b60006122a384828501612035565b91505092915050565b600080604083850312156122bf57600080fd5b600083013567ffffffffffffffff8111156122d957600080fd5b6122e585828601612074565b92505060206122f68582860161209e565b9150509250929050565b60006020828403121561231257600080fd5b60006123208482850161209e565b91505092915050565b60008060006060848603121561233e57600080fd5b600061234c8682870161209e565b935050602061235d8682870161200b565b925050604061236e8682870161209e565b9150509250925092565b61238181612d58565b82525050565b61239081612d6a565b82525050565b60006123a182612c00565b6123ab8185612c16565b93506123bb818560208601612ddb565b6123c481612fa7565b840191505092915050565b60006123da82612c0b565b6123e48185612c27565b93506123f4818560208601612ddb565b6123fd81612fa7565b840191505092915050565b600061241382612c0b565b61241d8185612c38565b935061242d818560208601612ddb565b80840191505092915050565b6000612446602883612c27565b915061245182612fb8565b604082019050919050565b6000612469603283612c27565b915061247482613007565b604082019050919050565b600061248c601c83612c27565b915061249782613056565b602082019050919050565b60006124af602b83612c27565b91506124ba8261307f565b604082019050919050565b60006124d2602483612c27565b91506124dd826130ce565b604082019050919050565b60006124f5601983612c27565b91506125008261311d565b602082019050919050565b6000612518602c83612c27565b915061252382613146565b604082019050919050565b600061253b603883612c27565b915061254682613195565b604082019050919050565b600061255e602a83612c27565b9150612569826131e4565b604082019050919050565b6000612581602983612c27565b915061258c82613233565b604082019050919050565b60006125a4602e83612c27565b91506125af82613282565b604082019050919050565b60006125c7602083612c27565b91506125d2826132d1565b602082019050919050565b60006125ea603183612c27565b91506125f5826132fa565b604082019050919050565b600061260d602c83612c27565b915061261882613349565b604082019050919050565b6000612630602983612c27565b915061263b82613398565b604082019050919050565b6000612653602f83612c27565b915061265e826133e7565b604082019050919050565b6000612676602183612c27565b915061268182613436565b604082019050919050565b6000612699601b83612c27565b91506126a482613485565b602082019050919050565b60006126bc603183612c27565b91506126c7826134ae565b604082019050919050565b60006126df601983612c27565b91506126ea826134fd565b602082019050919050565b6000612702602a83612c27565b915061270d82613526565b604082019050919050565b61272181612dc2565b82525050565b60006127338285612408565b915061273f8284612408565b91508190509392505050565b60006020820190506127606000830184612378565b92915050565b600060808201905061277b6000830187612378565b6127886020830186612378565b6127956040830185612718565b81810360608301526127a78184612396565b905095945050505050565b60006080820190506127c76000830187612378565b6127d46020830186612378565b6127e16040830185612718565b81810360608301526127f381846123cf565b905095945050505050565b60006020820190506128136000830184612387565b92915050565b6000602082019050818103600083015261283381846123cf565b905092915050565b6000602082019050818103600083015261285481612439565b9050919050565b600060208201905081810360008301526128748161245c565b9050919050565b600060208201905081810360008301526128948161247f565b9050919050565b600060208201905081810360008301526128b4816124a2565b9050919050565b600060208201905081810360008301526128d4816124c5565b9050919050565b600060208201905081810360008301526128f4816124e8565b9050919050565b600060208201905081810360008301526129148161250b565b9050919050565b600060208201905081810360008301526129348161252e565b9050919050565b6000602082019050818103600083015261295481612551565b9050919050565b6000602082019050818103600083015261297481612574565b9050919050565b6000602082019050818103600083015261299481612597565b9050919050565b600060208201905081810360008301526129b4816125ba565b9050919050565b600060208201905081810360008301526129d4816125dd565b9050919050565b600060208201905081810360008301526129f481612600565b9050919050565b60006020820190508181036000830152612a1481612623565b9050919050565b60006020820190508181036000830152612a3481612646565b9050919050565b60006020820190508181036000830152612a5481612669565b9050919050565b60006020820190508181036000830152612a748161268c565b9050919050565b60006020820190508181036000830152612a94816126af565b9050919050565b60006020820190508181036000830152612ab4816126d2565b9050919050565b60006020820190508181036000830152612ad4816126f5565b9050919050565b6000602082019050612af06000830184612718565b92915050565b6000608082019050612b0b6000830187612718565b612b186020830186612387565b612b256040830185612718565b612b326060830184612378565b95945050505050565b6000606082019050612b506000830186612718565b8181036020830152612b6281856123cf565b9050612b716040830184612378565b949350505050565b6000612b83612b94565b9050612b8f8282612e40565b919050565b6000604051905090565b600067ffffffffffffffff821115612bb957612bb8612f78565b5b612bc282612fa7565b9050602081019050919050565b600067ffffffffffffffff821115612bea57612be9612f78565b5b612bf382612fa7565b9050602081019050919050565b600081519050919050565b600081519050919050565b600082825260208201905092915050565b600082825260208201905092915050565b600081905092915050565b6000612c4e82612dc2565b9150612c5983612dc2565b9250827fffffffffffffffffffffffffffffffffffffffffffffffffffffffffffffffff03821115612c8e57612c8d612eeb565b5b828201905092915050565b6000612ca482612dc2565b9150612caf83612dc2565b925082612cbf57612cbe612f1a565b5b828204905092915050565b6000612cd582612dc2565b9150612ce083612dc2565b9250817fffffffffffffffffffffffffffffffffffffffffffffffffffffffffffffffff0483118215151615612d1957612d18612eeb565b5b828202905092915050565b6000612d2f82612dc2565b9150612d3a83612dc2565b925082821015612d4d57612d4c612eeb565b5b828203905092915050565b6000612d6382612da2565b9050919050565b60008115159050919050565b60007fffffffff0000000000000000000000000000000000000000000000000000000082169050919050565b600073ffffffffffffffffffffffffffffffffffffffff82169050919050565b6000819050919050565b82818337600083830152505050565b60005b83811015612df9578082015181840152602081019050612dde565b83811115612e08576000848401525b50505050565b60006002820490506001821680612e2657607f821691505b60208210811415612e3a57612e39612f49565b5b50919050565b612e4982612fa7565b810181811067ffffffffffffffff82111715612e6857612e67612f78565b5b80604052505050565b6000612e7c82612dc2565b91507fffffffffffffffffffffffffffffffffffffffffffffffffffffffffffffffff821415612eaf57612eae612eeb565b5b600182019050919050565b6000612ec582612dc2565b9150612ed083612dc2565b925082612ee057612edf612f1a565b5b828206905092915050565b7f4e487b7100000000000000000000000000000000000000000000000000000000600052601160045260246000fd5b7f4e487b7100000000000000000000000000000000000000000000000000000000600052601260045260246000fd5b7f4e487b7100000000000000000000000000000000000000000000000000000000600052602260045260246000fd5b7f4e487b7100000000000000000000000000000000000000000000000000000000600052604160045260246000fd5b6000601f19601f8301169050919050565b7f4572726f722c206f776e65722063616e27742073656e6420746f6b656e20746f60008201527f2068696d73656c66000000000000000000000000000000000000000000000000602082015250565b7f4552433732313a207472616e7366657220746f206e6f6e20455243373231526560008201527f63656976657220696d706c656d656e7465720000000000000000000000000000602082015250565b7f4552433732313a20746f6b656e20616c7265616479206d696e74656400000000600082015250565b7f4572726f722c206e6f6e206f776e65722068617320726571756573746564207060008201527f72696365206368616e6765000000000000000000000000000000000000000000602082015250565b7f4552433732313a207472616e7366657220746f20746865207a65726f2061646460008201527f7265737300000000000000000000000000000000000000000000000000000000602082015250565b7f4552433732313a20617070726f766520746f2063616c6c657200000000000000600082015250565b7f4552433732313a206f70657261746f7220717565727920666f72206e6f6e657860008201527f697374656e7420746f6b656e0000000000000000000000000000000000000000602082015250565b7f4552433732313a20617070726f76652063616c6c6572206973206e6f74206f7760008201527f6e6572206e6f7220617070726f76656420666f7220616c6c0000000000000000602082015250565b7f4552433732313a2062616c616e636520717565727920666f7220746865207a6560008201527f726f206164647265737300000000000000000000000000000000000000000000602082015250565b7f4552433732313a206f776e657220717565727920666f72206e6f6e657869737460008201527f656e7420746f6b656e0000000000000000000000000000000000000000000000602082015250565b7f45524337323155524953746f726167653a2055524920736574206f66206e6f6e60008201527f6578697374656e7420746f6b656e000000000000000000000000000000000000602082015250565b7f4552433732313a206d696e7420746f20746865207a65726f2061646472657373600082015250565b7f45524337323155524953746f726167653a2055524920717565727920666f722060008201527f6e6f6e6578697374656e7420746f6b656e000000000000000000000000000000602082015250565b7f4552433732313a20617070726f76656420717565727920666f72206e6f6e657860008201527f697374656e7420746f6b656e0000000000000000000000000000000000000000602082015250565b7f4552433732313a207472616e73666572206f6620746f6b656e2074686174206960008201527f73206e6f74206f776e0000000000000000000000000000000000000000000000602082015250565b7f4552433732314d657461646174613a2055524920717565727920666f72206e6f60008201527f6e6578697374656e7420746f6b656e0000000000000000000000000000000000602082015250565b7f4552433732313a20617070726f76616c20746f2063757272656e74206f776e6560008201527f7200000000000000000000000000000000000000000000000000000000000000602082015250565b7f4572726f722c20696e73756666696369656e742062616c616e63650000000000600082015250565b7f4552433732313a207472616e736665722063616c6c6572206973206e6f74206f60008201527f776e6572206e6f7220617070726f766564000000000000000000000000000000602082015250565b7f4572726f722c20746f6b656e206e6f7420666f722073616c6500000000000000600082015250565b7f4572726f722c2076616c7565207061696420646f6573206e6f74206d6174636860008201527f2074686520707269636500000000000000000000000000000000000000000000602082015250565b61357e81612d58565b811461358957600080fd5b50565b61359581612d6a565b81146135a057600080fd5b50565b6135ac81612d76565b81146135b757600080fd5b50565b6135c381612dc2565b81146135ce57600080fd5b5056fea26469706673582212208bcb84fd6fcecb2b4f6f1a069e0a2d96a50365105af276eacb07b082f6017d0764736f6c63430008040033",
  "linkReferences": {},
  "deployedLinkReferences": {}
}